{
  "contractName": "EthereumSession",
  "abi": [
    {
      "constant": true,
      "inputs": [],
      "name": "allowed_account",
      "outputs": [
        {
          "internalType": "address",
          "name": "",
          "type": "address"
        }
      ],
      "payable": false,
      "stateMutability": "view",
      "type": "function"
    },
    {
      "constant": true,
      "inputs": [
        {
          "internalType": "uint256",
          "name": "",
          "type": "uint256"
        }
      ],
      "name": "names_A_to_F",
      "outputs": [
        {
          "internalType": "string",
          "name": "",
          "type": "string"
        }
      ],
      "payable": false,
      "stateMutability": "view",
      "type": "function"
    },
    {
      "constant": false,
      "inputs": [
        {
          "internalType": "string",
          "name": "_id",
          "type": "string"
        }
      ],
      "name": "setName",
      "outputs": [],
      "payable": false,
      "stateMutability": "nonpayable",
      "type": "function"
    },
    {
      "constant": true,
      "inputs": [],
      "name": "getindex",
      "outputs": [
        {
          "internalType": "uint256",
          "name": "",
          "type": "uint256"
        }
      ],
      "payable": false,
      "stateMutability": "view",
      "type": "function"
    },
    {
      "constant": true,
      "inputs": [
        {
          "internalType": "uint256",
          "name": "_i",
          "type": "uint256"
        }
      ],
      "name": "getLastName",
      "outputs": [
        {
          "internalType": "string",
          "name": "",
          "type": "string"
        }
      ],
      "payable": false,
      "stateMutability": "view",
      "type": "function"
    }
  ],
  "bytecode": "0x608060405233600160006101000a81548173ffffffffffffffffffffffffffffffffffffffff021916908373ffffffffffffffffffffffffffffffffffffffff16021790555034801561005157600080fd5b506105e7806100616000396000f3fe608060405234801561001057600080fd5b50600436106100575760003560e01c806302201af91461005c578063174029f614610103578063879647e2146101aa578063c47f0027146101c8578063d5318d3914610283575b600080fd5b6100886004803603602081101561007257600080fd5b81019080803590602001909291905050506102cd565b6040518080602001828103825283818151815260200191508051906020019080838360005b838110156100c85780820151818401526020810190506100ad565b50505050905090810190601f1680156100f55780820380516001836020036101000a031916815260200191505b509250505060405180910390f35b61012f6004803603602081101561011957600080fd5b8101908080359060200190929190505050610386565b6040518080602001828103825283818151815260200191508051906020019080838360005b8381101561016f578082015181840152602081019050610154565b50505050905090810190601f16801561019c5780820380516001836020036101000a031916815260200191505b509250505060405180910390f35b6101b261043f565b6040518082815260200191505060405180910390f35b610281600480360360208110156101de57600080fd5b81019080803590602001906401000000008111156101fb57600080fd5b82018360208201111561020d57600080fd5b8035906020019184600183028401116401000000008311171561022f57600080fd5b91908080601f016020809104026020016040519081016040528093929190818152602001838380828437600081840152601f19601f82011690508083019250505050505050919291929050505061044b565b005b61028b6104e7565b604051808273ffffffffffffffffffffffffffffffffffffffff1673ffffffffffffffffffffffffffffffffffffffff16815260200191505060405180910390f35b600081815481106102da57fe5b906000526020600020016000915090508054600181600116156101000203166002900480601f01602080910402602001604051908101604052809291908181526020018280546001816001161561010002031660029004801561037e5780601f106103535761010080835404028352916020019161037e565b820191906000526020600020905b81548152906001019060200180831161036157829003601f168201915b505050505081565b60606000828154811061039557fe5b906000526020600020018054600181600116156101000203166002900480601f0160208091040260200160405190810160405280929190818152602001828054600181600116156101000203166002900480156104335780601f1061040857610100808354040283529160200191610433565b820191906000526020600020905b81548152906001019060200180831161041657829003601f168201915b50505050509050919050565b60008080549050905090565b600160009054906101000a900473ffffffffffffffffffffffffffffffffffffffff1673ffffffffffffffffffffffffffffffffffffffff163373ffffffffffffffffffffffffffffffffffffffff16146104a557600080fd5b60008190806001815401808255809150509060018203906000526020600020016000909192909190915090805190602001906104e292919061050d565b505050565b600160009054906101000a900473ffffffffffffffffffffffffffffffffffffffff1681565b828054600181600116156101000203166002900490600052602060002090601f016020900481019282601f1061054e57805160ff191683800117855561057c565b8280016001018555821561057c579182015b8281111561057b578251825591602001919060010190610560565b5b509050610589919061058d565b5090565b6105af91905b808211156105ab576000816000905550600101610593565b5090565b9056fea265627a7a72315820103f93040617d4149016b7ba2ebf8d0b03d84f3829184dd5b89ae9ffa72454f164736f6c63430005100032",
  "source": "pragma solidity 0.5.16;\n contract EthereumSession{\n\n     string[] public names_A_to_F; \n     address public allowed_account = msg.sender; \n     \n      \n\n     function setName(string memory _id) public  {  \n         require(msg.sender == allowed_account);\n         names_A_to_F.push(_id);\n        \n     }\n     function getindex() public view returns (uint) {\n        \n         return names_A_to_F.length;\n     }\n     function getLastName(uint _i) public view returns (string memory) {\n              return names_A_to_F[_i];\n              \n    \n     }\n }",
  "sourcePath": "C:\\Users\\uhyg\\Blockchain_3\\contracts\\essai.sol",
  "compiler": {
    "name": "solc",
    "version": "0.5.16+commit.9c3226ce.Emscripten.clang"
  },
  "schemaVersion": "3.1.0",
  "updatedAt": "2020-07-09T10:53:44.779Z",
  "networkType": "ethereum",
  "devdoc": {
    "methods": {}
  },
  "userdoc": {
    "methods": {}
  }
}